:020000040000FA
:1000000000040020810A000015070000610A0000BA
:100010001F07000029070000330700000000000050
:10002000000000000000000000000000A50A000021
:100030003D070000000000004707000051070000D6
:100040005B070000650700006F07000079070000EC
:10005000830700008D07000097070000A10700003C
:10006000AB070000B5070000BF070000C90700008C
:10007000D3070000DD070000E7070000F1070000DC
:10008000FB070000050800000F0800001908000029
:10009000230800002D080000370800004108000078
:1000A0004B080000550800005F08000069080000C8
:1000B000730800007D080000870800009108000018
:1000C0009B080000A5080000AF080000B908000068
:1000D000C3080000CD080000D7080000E1080000B8
:1000E000EB080000F5080000FF0800000909000007
:1000F000130900001D090000270900003109000054
:100100003B0900001FB500F003F88DE80F001FBD8C
:1001100000F0ACBC40F6FC7108684FF01022401CA7
:1001200008D00868401C09D00868401C04D0086842
:1001300000F037BA9069F5E79069F9E7704770B554
:100140000B46010B184400F6FF70040B4FF0805073
:100150000022090303692403406943431D1B104621
:1001600000F048FA29462046BDE8704000F042BA47
:10017000F0B54FF6FF734FF4B4751A466E1E11E0DA
:10018000A94201D3344600E00C46091B30F8027B3B
:10019000641E3B441A44F9D19CB204EB134394B25D
:1001A00004EB12420029EBD198B200EB134002EBB2
:1001B000124140EA0140F0BDF34992B00446D1E952
:1001C0000001CDE91001FF224021684600F0F4FB58
:1001D00094E80F008DE80F00684610A902E004C8FB
:1001E00041F8042D8842FAD110216846FFF7C0FF7C
:1001F0001090AA208DF8440000F099F9FFF78AFFCB
:1002000040F6FC7420684FF01025401C0FD0206889
:1002100010226946803000F078F92068401C08D030
:100220002068082210A900F070F900F061F9A869AF
:10023000EEE7A869F5E74FF080500369406940F6A2
:10024000FC71434308684FF01022401C06D0086838
:1002500000F58050834203D2092070479069F7E788
:100260000868401C04D00868401C03D00020704778
:100270009069F9E70420704770B504460068C34DE3
:10028000072876D2DFE800F033041929631E250021
:10029000D4E9026564682946304600F062F92A46CE
:1002A0002146304600F031F9AA002146304600F0E0
:1002B00057FB002800D0032070BD00F009FC4FF46C
:1002C000805007E0201D00F040F90028F4D100F034
:1002D000FFFB60682860002070BD241D94E80700C3
:1002E000920000F03DFB0028F6D00E2070BDFFF715
:1002F000A2FF0028FAD1D4E901034FF0805100EBAE
:10030000830208694D69684382420ED840F6F8704E
:1003100005684FF010226D1C09D0056805EB8305B8
:100320000B6949694B439D4203D9092070BD55694A
:10033000F4E70168491C03D00068401C02D003E0C8
:100340005069FAE70F2070BD2046FFF735FFFFF731
:1003500072FF0028F7D1201D00F0F7F80028F2D135
:1003600060680028F0D100F0E2F8FFF7D3FE00F05B
:10037000BFF8072070BD10B50C46182802D0012028
:10038000086010BD2068FFF777FF206010BD41684E
:10039000054609B1012700E0002740F6F8742068FF
:1003A0004FF01026401C2BD02068AA68920000F065
:1003B000D7FA38B3A86881002068401C27D020688D
:1003C000FFF7BDFED7B12068401C22D026684FF051
:1003D0008050AC686D68016942695143A9420DD9EA
:1003E000016940694143A14208D92146304600F0E5
:1003F000B8F822462946304600F087F800F078F831
:100400007069D2E700F093F8FFF784FEF6E77069B1
:10041000D6E77669DBE740F6FC7420684FF01026DB
:10042000401C23D02068401C0CD02068401C1FD0EA
:100430002568206805F18005401C1BD027683879A5
:10044000AA2819D040F6F8700168491C42D001680A
:10045000491C45D00168491C3ED001680968491C07
:100460003ED00168491C39D000683EE0B069DAE747
:10047000B569DEE7B769E2E710212846FFF778FEA5
:100480003968814222D12068401C05D0D4F8001080
:1004900001F18002C03107E0B169F9E730B108CA63
:1004A00051F8040D984201D1012000E000208A4259
:1004B000F4D158B1286810B1042803D0FEE72846CB
:1004C000FFF765FF3149686808600EE0FFF722FE1C
:1004D00000F00EF87169BBE77169BFE7706904E06D
:1004E0004FF480500168491C01D000F0CBFAFEE7C0
:1004F000BFF34F8F26480168264A01F4E06111439B
:100500000160BFF34F8F00BFFDE72DE9F0411746B3
:100510000D460646002406E03046296800F054F8EF
:10052000641C2D1D361DBC42F6D3BDE8F08140F69B
:10053000FC700168491C04D0D0F800004FF48051D1
:10054000FDE54FF010208069F8E74FF080510A690F
:10055000496900684A43824201D810207047002050
:10056000704770B50C4605464FF4806608E0284693
:1005700000F017F8B44205D3A4F5806405F5805562
:10058000002CF4D170BD0000F40A0000000000202F
:100590000CED00E00400FA05144801680029FCD0C5
:1005A0007047134A0221116010490B68002BFCD0E0
:1005B0000F4B1B1D186008680028FCD0002010603D
:1005C00008680028FCD07047094B10B501221A605A
:1005D000064A1468002CFCD0016010680028FCD08A
:1005E0000020186010680028FCD010BD00E4014015
:1005F00004E5014070B50C46054600F073F810B9EB
:1006000000F07EF828B121462846BDE8704000F091
:1006100007B821462846BDE8704000F037B8000012
:100620007FB5002200920192029203920A0B000B06
:100630006946012302440AE0440900F01F0651F80C
:10064000245003FA06F6354341F82450401C8242F8
:10065000F2D80D490868009A10430860081D016827
:10066000019A1143016000F03DF800280AD00649C4
:1006700010310868029A10430860091D0868039A3F
:10068000104308607FBD00000006004030B50F4CED
:10069000002200BF04EB0213D3F800582DB9D3F8A1
:1006A000045815B9D3F808581DB1521C082AF1D3C3
:1006B00030BD082AFCD204EB0212C2F80008C3F8CD
:1006C00004180220C3F8080830BD000000E0014013
:1006D0004FF08050D0F83001082801D0002070473A
:1006E000012070474FF08050D0F83011062905D016
:1006F000D0F83001401C01D0002070470120704725
:100700004FF08050D0F830010A2801D00020704707
:100710000120704708208F490968095808471020B0
:100720008C4909680958084714208A4909680958FA
:100730000847182087490968095808473020854923
:100740000968095808473820824909680958084744
:100750003C20804909680958084740207D490968BC
:100760000958084744207B49096809580847482028
:1007700078490968095808474C207649096809589A
:10078000084750207349096809580847542071499F
:1007900009680958084758206E49096809580847E8
:1007A0005C206C4909680958084760206949096854
:1007B00009580847642067490968095808476820AC
:1007C00064490968095808476C2062490968095852
:1007D000084770205F4909680958084774205D4937
:1007E00009680958084778205A490968095808478C
:1007F0007C205849096809580847802055490968EC
:10080000095808478420534909680958084788202F
:1008100050490968095808478C204E490968095809
:10082000084790204B4909680958084794204949CE
:10083000096809580847982046490968095808472F
:100840009C204449096809580847A0204149096883
:1008500009580847A4203F49096809580847A820B3
:100860003C49096809580847AC203A4909680958C1
:100870000847B0203749096809580847B420354966
:10088000096809580847B8203249096809580847D3
:10089000BC203049096809580847C0202D4909681B
:1008A00009580847C4202B49096809580847C82037
:1008B0002849096809580847CC2026490968095879
:1008C0000847D0202349096809580847D4202149FE
:1008D000096809580847D8201E4909680958084777
:1008E000DC201C49096809580847E02019490968B3
:1008F00009580847E4201749096809580847E820BB
:100900001449096809580847EC2012490968095830
:100910000847F0200F49096809580847F4200D4995
:10092000096809580847F8200A490968095808471A
:10093000FC2008490968095808475FF48070054998
:10094000096809580847000003480449024A034B54
:100950007047000000000020000B0000000B0000AA
:1009600040EA010310B59B070FD1042A0DD310C82C
:1009700008C9121F9C42F8D020BA19BA884201D97E
:10098000012010BD4FF0FF3010BD1AB1D30703D0C6
:10099000521C07E0002010BD10F8013B11F8014B7C
:1009A0001B1B07D110F8013B11F8014B1B1B01D198
:1009B000921EF1D1184610BD02F0FF0343EA032254
:1009C00042EA024200F005B87047704770474FF0A6
:1009D00000020429C0F0128010F0030C00F01B800C
:1009E000CCF1040CBCF1020F18BF00F8012BA8BF1A
:1009F00020F8022BA1EB0C0100F00DB85FEAC17CDE
:100A000024BF00F8012B00F8012B48BF00F8012B90
:100A100070474FF0000200B51346944696462039C1
:100A200022BFA0E80C50A0E80C50B1F12001BFF4A7
:100A3000F7AF090728BFA0E80C5048BF0CC05DF80D
:100A400004EB890028BF40F8042B08BF704748BF5B
:100A500020F8022B11F0804F18BF00F8012B7047CF
:100A6000014B1B68DB6818470000002009480A4951
:100A70007047FFF7FBFFFFF745FB00BD20BFFDE719
:100A8000064B1847064A1060016881F308884068E1
:100A900000470000000B0000000B000017040000DE
:100AA000000000201EF0040F0CBFEFF30881EFF3ED
:100AB0000981886902380078182803D100E0000015
:100AC000074A1047074A12682C3212681047000084
:100AD00000B5054B1B68054A9B58984700BD0000B0
:100AE0007703000000000020F00A0000040000006E
:100AF000001000000000000000FFFFFF0090D00386
:10100000803501209D94020097C20300899402005C
:101010008994020089940200899402000000000073
:1010200000000000000000000000000039960200EF
:101030008994020000000000A59502008994020036
:10104000F5980200EDF10200F5980200F598020013
:10105000F5980200F5980200F5980200F598020054
:10106000F5980200F5980200E5330300F5980200B8
:10107000F5980200F5980200F5980200F598020034
:10108000F5980200F5980200F5980200F598020024
:1010900051F20200F5980200F5980200F59802005E
:1010A000F5980200F5980200F5980200F598020004
:1010B000F5980200F5980200F5980200F5980200F4
:1010C000F5980200F5980200F5980200F5980200E4
:1010D000F5980200F5980200F5980200F5980200D4
:1010E000F5980200F5980200F5980200F5980200C4
:1010F000F5980200F5980200F5980200F5980200B4
:1011000001F0FF01102A2BDB10F0070F08D010F8B8
:10111000013B013A8B422DD010F0070F42B3F6D1BC
:10112000F0B441EA012141EA014122F007047FF0D5
:1011300000070023F0E80256083C85EA010586EA2C
:10114000010685FA47F5A3FA87F586FA47F6A5FA68
:1011500087F68EB9EED1F0BC01F0FF0102F0070274
:1011600032B110F8013B013A83EA010313B1F8D11F
:101170000020704701387047002D06BF3546033800
:10118000073815F0010F07D1013015F4807F02BF39
:10119000013015F4C03F0130F0BC0138704700BF8A
:1011A000014B1B685B68184700050020014B1B685A
:1011B0009B68184700050020014B1B681B691847F6
:1011C00000050020014B1B685B69184700050020E3
:1011D000014B1B689B69184700050020014B1B68E9
:1011E000DB69184700050020014B1B681B6A184784
:1011F00000050020014B1B689B6A18470005002072
:1012000030B4044C9DF8085024680295E468A44664
:1012100030BC60470005002030B50246114890F907
:101220001C3093421ADD90F92430934218DAD31A15
:10123000856A0D4CE85C235693420ED00E3400298B
:101240000CBF0346431CA542D8B206D129B1013ACE
:10125000D2B2012A01D80130C0B230BD0D20FCE766
:101260000020FAE7A00F0020E4E5030008B5054BD5
:1012700093F91C30984203DAFFF7CEFF024B1B565E
:10128000184608BDA00F0020E4E5030010B51C4C73
:1012900094F82C3073B9012384F82C3000F09EF8B8
:1012A00048B1184BA362D823236284F82430082362
:1012B000A361237710BD00F0A7F80028F1D100F05A
:1012C000ADF80028EDD100F06BF838B10E4BA362F9
:1012D000D823236284F824300423E9E700F06AF875
:1012E0000028F3D100F070F80028EFD100F080F86A
:1012F0000028EBD140F2BF11742000F019F800BFB4
:10130000A00F00201FE60300F2E50300BFF34F8F9C
:101310000549064BCA6802F4E0621343CB60BFF391
:101320004F8F00BFFDE700BF00ED00E00400FA05AD
:101330001FB572B6134B5D688DB9FFF7E7FFB2FBBF
:10134000F6F2DCB20133002AF9D104F110036B4448
:1013500003F80C2C0A2234B901A8A847EDE702468D
:1013600000230A26EDE7631E04AEDCB256FA83F3CF
:10137000B0FBF2F602FB1600303003F80C0C3046DE
:10138000E9E700BF401400204FF08052034BD2F831
:1013900030111960D2F834215A6070477C14002053
:1013A000034B1868A0F10F0358425841704700BF23
:1013B0007C140020034B1868A0F10A0358425841DE
:1013C000704700BF7C140020034B1868A0F10E0387
:1013D00058425841704700BF7C140020034B1868E6
:1013E000A0F1100358425841704700BF7C14002000
:1013F000044B1868062803D0431C584258417047D4
:10140000012070477C140020034B1868A0F10D03E5
:1014100058425841704700BF7C140020034B1868A5
:10142000A0F1080358425841704700BF7C140020C7
:1014300081F0004102E000BF83F0004330B54FEA85
:1014400041044FEA430594EA050F08BF90EA020FF2
:101450001FBF54EA000C55EA020C7FEA645C7FEA85
:10146000655C00F0E2804FEA5454D4EB5555B8BFA8
:101470006D420CDD2C4480EA020281EA030382EA19
:10148000000083EA010180EA020281EA0303362DAB
:1014900088BF30BD11F0004F4FEA01314FF4801C7E
:1014A0004CEA113102D0404261EB410113F0004F90
:1014B0004FEA03334CEA133302D0524263EB430347
:1014C00094EA050F00F0A780A4F10104D5F1200EE5
:1014D0000DDB02FA0EFC22FA05F2801841F1000140
:1014E00003FA0EF2801843FA05F359410EE0A5F114
:1014F00020050EF1200E012A03FA0EFC28BF4CF045
:10150000020C43FA05F3C01851EBE37101F00045FA
:1015100007D54FF0000EDCF1000C7EEB00006EEB07
:101520000101B1F5801F1BD3B1F5001F0CD3490891
:101530005FEA30004FEA3C0C04F101044FEA4452E8
:1015400012F5800F80F09A80BCF1004F08BF5FEA6F
:10155000500C50F1000041EB045141EA050130BD4F
:101560005FEA4C0C404141EB0101013C28BFB1F561
:10157000801FE9D291F0000F04BF01460020B1FAAC
:1015800081F308BF2033A3F10B03B3F120020CDA7F
:101590000C3208DD02F1140CC2F10C0201FA0CF05D
:1015A00021FA02F10CE002F11402D8BFC2F1200CC2
:1015B00001FA02F120FA0CFCDCBF41EA0C01904078
:1015C000E41AA2BF01EB0451294330BD6FEA0404C1
:1015D0001F3C1CDA0C340EDC04F11404C4F12002AC
:1015E00020FA04F001FA02F340EA030021FA04F3BE
:1015F00045EA030130BDC4F10C04C4F1200220FA15
:1016000002F001FA04F340EA0300294630BD21FA52
:1016100004F0294630BD94F0000F83F4801306BF18
:1016200081F480110134013D4EE77FEA645C18BF0C
:101630007FEA655C29D094EA050F08BF90EA020FA3
:1016400005D054EA000C04BF1946104630BD91EA9B
:10165000030F1EBF0021002030BD5FEA545C05D19E
:101660004000494128BF41F0004130BD14F58004DD
:101670003CBF01F5801130BD01F0004545F0FE4151
:1016800041F470014FF0000030BD7FEA645C1ABF86
:10169000194610467FEA655C1CBF0B46024650EABD
:1016A000013406BF52EA033591EA030F41F40021E9
:1016B00030BD00BF90F0000F04BF0021704730B56F
:1016C0004FF4806404F132044FF000054FF0000144
:1016D00050E700BF90F0000F04BF0021704730B505
:1016E0004FF4806404F1320410F0004548BF4042DA
:1016F0004FF000013EE700BF42004FEAE2014FEA2F
:1017000031014FEA02701FBF12F07F4393F07F4F09
:1017100081F06051704732F07F4208BF704793F00C
:101720007F4F04BF41F40021704730B54FF460741F
:1017300001F0004521F000411CE700BF50EA010222
:1017400008BF704730B54FF000050AE050EA0102CB
:1017500008BF704730B511F0004502D5404261EB3B
:1017600041014FF4806404F132045FEA915C3FF47C
:10177000D8AE4FF003025FEADC0C18BF03325FEA19
:10178000DC0C18BF033202EBDC02C2F1200300FACA
:1017900003FC20FA02F001FA03FE40EA0E0021FAEF
:1017A00002F11444BDE600BF70B54FF0FF0C4CF4DD
:1017B000E06C1CEA11541DBF1CEA135594EA0C0F8F
:1017C00095EA0C0F00F0DEF82C4481EA030621EACA
:1017D0004C5123EA4C5350EA013518BF52EA033505
:1017E00041F4801143F4801338D0A0FB02CE4FF0B7
:1017F0000005E1FB02E506F00042E0FB03E54FF0E7
:101800000006E1FB03569CF0000F18BF4EF0010EDE
:10181000A4F1FF04B6F5007F64F5407404D25FEADA
:101820004E0E6D4146EB060642EAC62141EA55518D
:101830004FEAC52040EA5E504FEACE2EB4F1FD0CCF
:1018400088BFBCF5E06F1ED8BEF1004F08BF5FEA4D
:10185000500E50F1000041EB045170BD06F00046FF
:1018600046EA010140EA020081EA0301B4EB5C04AC
:10187000C2BFD4EB0C0541EA045170BD41F48011A4
:101880004FF0000E013C00F3AB8014F1360FDEBFC9
:10189000002001F0004170BDC4F10004203C35DAA5
:1018A0000C341BDC04F11404C4F1200500FA05F328
:1018B00020FA04F001FA05F240EA020001F00042C9
:1018C00021F0004110EBD37021FA04F642EB06013F
:1018D0005EEA430E08BF20EAD37070BDC4F10C0469
:1018E000C4F1200500FA04F320FA05F001FA04F22D
:1018F00040EA020001F0004110EBD37041F1000119
:101900005EEA430E08BF20EAD37070BDC4F1200523
:1019100000FA05F24EEA020E20FA04F301FA05F28B
:1019200043EA020321FA04F001F0004121FA04F233
:1019300020EA020000EBD3705EEA430E08BF20EA03
:10194000D37070BD94F0000F0FD101F0004640003D
:1019500041EB010111F4801F08BF013CF7D041EABF
:10196000060195F0000F18BF704703F000465200C3
:1019700043EB030313F4801F08BF013DF7D043EA94
:101980000603704794EA0C0F0CEA135518BF95EA4A
:101990000C0F0CD050EA410618BF52EA4306D1D1D1
:1019A00081EA030101F000414FF0000070BD50EAF0
:1019B000410606BF1046194652EA430619D094EA7A
:1019C0000C0F02D150EA013613D195EA0C0F05D164
:1019D00052EA03361CBF104619460AD181EA0301B8
:1019E00001F0004141F0FE4141F470014FF0000070
:1019F00070BD41F0FE4141F4780170BD70B54FF00B
:101A0000FF0C4CF4E06C1CEA11541DBF1CEA13558A
:101A100094EA0C0F95EA0C0F00F0A7F8A4EB05046C
:101A200081EA030E52EA03354FEA013100F0888063
:101A30004FEA03334FF0805545EA131343EA12632C
:101A40004FEA022245EA111545EA10654FEA0026E1
:101A50000EF000419D4208BF964244F1FD0404F59A
:101A6000407402D25B084FEA3202B61A65EB0305F6
:101A70005B084FEA32024FF480104FF4002CB6EBB3
:101A8000020E75EB030E22BFB61A754640EA0C0033
:101A90005B084FEA3202B6EB020E75EB030E22BF73
:101AA000B61A754640EA5C005B084FEA3202B6EBB4
:101AB000020E75EB030E22BFB61A754640EA9C0073
:101AC0005B084FEA3202B6EB020E75EB030E22BF43
:101AD000B61A754640EADC0055EA060E18D04FEA01
:101AE000051545EA16754FEA06164FEAC30343EAA1
:101AF00052734FEAC2025FEA1C1CC0D111F4801F6E
:101B00000BD141EA00014FF000004FF0004CB6E766
:101B100011F4801F04BF01430020B4F1FD0C88BF05
:101B2000BCF5E06F3FF6AFAEB5EB030C04BFB6EB10
:101B3000020C5FEA500C50F1000041EB045170BD03
:101B40000EF0004E4EEA113114EB5C04C2BFD4EB30
:101B50000C0541EA045170BD41F480114FF0000EB4
:101B6000013C90E645EA060E8DE60CEA135594EA30
:101B70000C0F08BF95EA0C0F3FF43BAF94EA0C0F33
:101B80000AD150EA01347FF434AF95EA0C0F7FF4A8
:101B900025AF104619462CE795EA0C0F06D152EAFC
:101BA00003353FF4FDAE1046194622E750EA4106E0
:101BB00018BF52EA43067FF4C5AE50EA41047FF4F1
:101BC0000DAF52EA43057FF4EBAE12E74FF0FF3C56
:101BD00006E000BF4FF0010C02E000BF4FF0010C27
:101BE0004DF804CD4FEA410C7FEA6C5C4FEA430CA0
:101BF00018BF7FEA6C5C1BD001B050EA410C0CBFEF
:101C000052EA430C91EA030F02BF90EA020F002050
:101C1000704710F1000F91EA030F58BF994208BFB7
:101C200090422CBFD8176FEAE37040F00100704774
:101C30004FEA410C7FEA6C5C02D150EA013C07D1CB
:101C40004FEA430C7FEA6C5CD6D152EA033CD3D016
:101C50005DF8040B704700BF8446104662468C4610
:101C60001946634600E000BF01B5FFF7B7FF002843
:101C700048BF10F1000F01BD4DF808EDFFF7F4FF6C
:101C80000CBF012000205DF808FB00BF4DF808EDF7
:101C9000FFF7EAFF34BF012000205DF808FB00BF1A
:101CA0004DF808EDFFF7E0FF94BF012000205DF83C
:101CB00008FB00BF4DF808EDFFF7CEFF94BF0120F1
:101CC00000205DF808FB00BF4DF808EDFFF7C4FFEA
:101CD00034BF012000205DF808FB00BF4FEA410C33
:101CE0007FEA6C5C02D150EA013C0AD14FEA430C16
:101CF0007FEA6C5C02D152EA033C02D14FF0000053
:101D000070474FF0010070474FEA410212F5001290
:101D100015D211D56FF47873B3EB625212D94FEA32
:101D2000C12343F0004343EA505311F0004F23FA1C
:101D300002F018BF404270474FF00000704750EA71
:101D4000013005D111F0004008BF6FF0004070472E
:101D50004FF00000704700BF4A0011D212F5001288
:101D600011D20DD56FF47873B3EB62520ED44FEAF3
:101D7000C12343F0004343EA505323FA02F0704773
:101D80004FF00000704750EA013002D14FF0FF30B1
:101D900070474FF0000070474FEA4102B2F1E04354
:101DA00024BFB3F5001CDCF1FE5C0DD901F0004C42
:101DB0004FEAC0024CEA5070B2F1004F40EB830092
:101DC00008BF20F00100704711F0804F21D113F1BE
:101DD0003872BCBF01F00040704741F480114FEAF7
:101DE0005252C2F11802C2F1200C10FA0CF320FA80
:101DF00002F018BF40F001004FEAC1234FEAD3239D
:101E000003FA0CFC40EA0C0023FA02F34FEA430306
:101E1000CCE77FEA625307D150EA01331EBF4FF08F
:101E2000FE4040F44000704701F0004040F0FE40AA
:101E300040F40000704700BF80F0004002E000BFA7
:101E400081F0004142001FBF5FEA410392EA030FA5
:101E50007FEA226C7FEA236C6AD04FEA1262D2EBEF
:101E60001363C1BFD218414048404140B8BF5B42F4
:101E7000192B88BF704710F0004F40F4000020F08D
:101E80007F4018BF404211F0004F41F4000121F0A3
:101E90007F4118BF494292EA030F3FD0A2F10102ED
:101EA00041FA03FC10EB0C00C3F1200301FA03F12B
:101EB00000F0004302D5494260EB4000B0F5000F4E
:101EC00013D3B0F1807F06D340084FEA310102F10D
:101ED0000102FE2A51D2B1F1004F40EBC25008BFBF
:101EE00020F0010040EA03007047490040EB000089
:101EF000013A28BFB0F5000FEDD2B0FA80FCACF18A
:101F0000080CB2EB0C0200FA0CF0AABF00EBC250B6
:101F100052421843BCBFD0401843704792F0000FA4
:101F200081F4000106BF80F400000132013BB5E7F7
:101F30004FEA41037FEA226C18BF7FEA236C21D06D
:101F400092EA030F04D092F0000F08BF08467047D2
:101F500090EA010F1CBF0020704712F07F4F04D1A0
:101F6000400028BF40F00040704712F100723CBFB3
:101F700000F50000704700F0004343F0FE4040F4DD
:101F8000000070477FEA226216BF08467FEA23639B
:101F90000146420206BF5FEA412390EA010F40F486
:101FA000800070474FF0000304E000BF10F00043D2
:101FB00048BF40425FEA000C08BF704743F09643B9
:101FC00001464FF000001CE050EA010208BF7047D4
:101FD0004FF000030AE000BF50EA010208BF70475B
:101FE00011F0004302D5404261EB41015FEA010C70
:101FF00002BF84460146002043F0B64308BFA3F168
:102000008053A3F50003BCFA8CF2083AA3EBC25349
:1020100010DB01FA02FC634400FA02FCC2F1200268
:10202000BCF1004F20FA02F243EB020008BF20F09F
:102030000100704702F1200201FA02FCC2F1200205
:1020400050EA4C0021FA02F243EB020008BF20EAFA
:10205000DC7070477BB972B90029BEBF00204FF019
:10206000004106E008BF00281CBF6FF000414FF0A0
:10207000FF3000F095B8ADF1080C6DE904CE0029F1
:1020800009DB002B1ADB00F005F9DDF804E0DDE9DF
:10209000022304B07047404261EB4101002B1BDB7F
:1020A00000F0F8F8DDF804E0DDE9022304B0404276
:1020B00061EB4101524263EB43037047524263EBD1
:1020C000430300F0E7F8DDF804E0DDE9022304B0A3
:1020D000404261EB41017047524263EB430300F021
:1020E000D9F8DDF804E0DDE9022304B0524263EBE5
:1020F0004303704753B94AB9002908BF00281CBFE1
:102100004FF0FF314FF0FF3000F04AB8ADF1080C4E
:102110006DE904CE00F0BEF8DDF804E0DDE902234D
:1021200004B07047D0B5FFF7E7FA0C4B0022064623
:102130000F46FFF739FBFFF70FFE0446FFF7BAFA29
:10214000074B0022FFF730FB02460B46304639466C
:10215000FFF772F9FFF700FE2146D0BD0000F03D09
:102160000000F041D0B50C4B002206460F46FFF7A9
:102170001BFBFFF7F1FD0446FFF79CFA074B00221B
:10218000FFF712FB02460B4630463946FFF754F97B
:10219000FFF7E2FD2146D0BD0000F03D0000F04118
:1021A000704700BF08B5FFF7EFF8BDE80840FFF73C
:1021B0006DB870B5841A04F307040E4660B259B2C4
:1021C0001546FFF753F8002330702844737040B26F
:1021D00070BD0023036070477047002070474FF0C8
:1021E000FF3070474FF0FF30704770474FF0FF30BF
:1021F000704700207047002070470023037070472D
:102200009DF800300022FFF7D4BF002070474FF048
:10221000FF3070474FF0FF3070474FF0FF3070478E
:10222000704700280CBF6FF0150000207047002099
:10223000704707230370002070470020704700207C
:10224000704710F8012B11F8013B012A28BF9A4270
:10225000F7D0D01A7047034613F8012B002AFBD1A0
:10226000181A0138704738B50022002304460D467D
:10227000FFF70CFD28B920462946BDE83840FFF796
:1022800071BF204605F10041FFF76CFF404261EB52
:10229000410138BD2DE9F04786468C460846089E28
:1022A000154674461946002B40F0C2808542B2FAAA
:1022B00082F245D94AB1C2F1200300FA02FC2EFA9B
:1022C00003F3954043EA0C0C94404FEA154EA8B234
:1022D000BCFBFEF8230C0EFB18CC08FB00F943EA0C
:1022E0000C43994528D9EB1808F1FF3704D29945DA
:1022F00002D9A8F102072B44A3EB0903A4B2B3FB54
:10230000FEFC0EFB1C330CFB00F044EA0344A0422D
:1023100014D92C190CF1FF3304D2A04202D9ACF12C
:1023200002032C44241A43EA07401EB1D440002380
:1023300034607360BDE8F0874746DDE76346F1E748
:1023400092BB431B01214FEA154EAFB2B3FBFEFC1B
:10235000200C0EFB1C330CFB07F840EA03439845A6
:1023600062D9EB180CF1FF3004D2984502D9ACF1D8
:1023700002002B44A3EB0803A4B2B3FBFEFC0EFB4C
:102380001C330CFB07F744EA0344A7424ED92C192F
:102390000CF1FF3304D2A74202D9ACF102032C4462
:1023A000E41B43EA0040C0E7C2F1200320FA03F136
:1023B000954090402EFA03F303434FEA154EAFB217
:1023C000B1FBFEFC0EFB1C10190C0CFB07F841EADC
:1023D0000041884504FA02F422D969180CF1FF3053
:1023E00004D2884502D9ACF102002944A1EB0801CE
:1023F0009BB2B1FBFEFC0EFB1C110CFB07F743EA82
:1024000001439F420ED9EB180CF1FF3104D29F42D9
:1024100002D9ACF102012B44DB1B41EA004192E7F7
:102420006046E3E76146F7E76046A3E76346B7E740
:10243000834206D916B9002108467BE7C6E900E0C9
:10244000F9E7B3FA83F78FB9834201D3724508D80D
:10245000BEEB020460EB030301209C461EB9002181
:1024600068E73846FAE7C6E9004CF8E7C7F1200C00
:10247000BB4022FA0CF41C432EFA0CF120FA0CF3A8
:10248000B84001434FEA14490EFA07F5B3FBF9F8D7
:102490001FFA84FE09FB18300B0C08FB0EFA43EA06
:1024A00000439A4502FA07F240D9E31808F1FF30D9
:1024B00004D29A4502D9A8F102002344A3EB0A03EF
:1024C00089B2B3FBF9F809FB183308FB0EFE41EAA9
:1024D00003418E452CD9611808F1FF3304D28E4593
:1024E00002D9A8F10203214443EA0040A0FB02986C
:1024F000A1EB0E014145CE46434602D306D14D45E0
:1025000004D2B9EB020E68EB04030138002EA6D00A
:10251000B5EB0E0261EB030101FA0CFC22FA07F3A2
:102520004CEA0303F940C6E9003198E74046C5E7A5
:102530004346D9E7000000002DE9F04F2DED048B54
:1025400087B00578012D00AF17D0022D00F0A380D1
:102550006DB9B64A136801331360B54B1D60B54BB6
:102560001B7823B109F0D0FA08B909F0BFFF1C3776
:10257000BD46BDEC048BBDE8F08FAF4C2368013342
:10258000236037F0D0FB24686422B4FBF2F302FB33
:102590001343AA4A2BB1136841F28831C31A8B4204
:1025A0001FD9A24B10601E68A51918BF64234FF0F5
:1025B0000A001CBF6343B3FBF5F523F07DFE50B169
:1025C0009F4BC0E90745C0E9053605230374002386
:1025D00043748374C3749B4900234FF4235239F02E
:1025E00015FCDFF8A482984D98F80030B3B137F0AD
:1025F0009AFB964AD2E90064861B61EB040408F05A
:1026000051FD64380023B04273EB040406DA904AAB
:1026100088F8003013602B6801332B602E68002E81
:102620009DD00A23B6FBF3F403FB1464ACB9894BC9
:102630001B78F02B11D1082023F03EFE38B1864BD9
:102640004474C0E90536032303748474C4747D495B
:1026500000234FF4C45239F0D9FB2C68B4F5967FAF
:102660007FF47DAF37F05FFB7C4BC3E900010820AE
:1026700023F022FE40B17A4BC0E9053403230374F2
:10268000002343748374C3746E4900234FF4C4520F
:1026900039F0BCFB63E73AF094FDDFF8E0B1F86095
:1026A00058462DF073FA10F13D0F04463FF45FAF2A
:1026B000A8B1082023F000FE50B16A4B43616A4B79
:1026C000C0E9063404230374002343748374C37481
:1026D00000234FF401525B4939F098FB47E7634907
:1026E0009BF800300A78002A44D1082B7FF43FAFD2
:1026F0005F4C2378002B3FF43AAF5E4B9BF805000C
:102700005B79984201D0227031E74FF000084FF01A
:102710000009C7E90489BBF80B30BB82DBF807006E
:10272000BD8A38614FF080537D61D3F8A460D3F83F
:10273000A8309BB29D4208BFB04214D1062023F0BE
:10274000BBFD38B14C4B4361022303740023437437
:102750008374C37400233B494FF4845239F056FB11
:102760000023237003E7DBF805300B60DBF809304A
:102770004B60C8E70D2B3BD0112B3FF4F8AE032B79
:1027800040F222839BF80530AA2B40F01D8309F00C
:10279000BBF9002800F018839BF800309BF8062056
:1027A0003648374CDFF8E4C0023B03EBD373C3F386
:1027B0004703934228BF13460026F2B293427FF6A6
:1027C000D6AEC279057A45EA0225002294F800E0E7
:1027D000D1B27145C0F0ED8222780F2A00F2F18269
:1027E0002278D1B20132D2B222702CF81150E8E234
:1027F0009BF80530F12B7FF4BAAE0C220BF10501EA
:10280000072021F0EBFB9BF81130834240D00620DB
:1028100023F052FD28B11B4B43610574447484744A
:10282000C47400234FF4845255E700BFB046002023
:10283000B8460020C2CB0020AC460020A8460020AD
:102840002F000400B0E303003C47002008170020DD
:1028500040470020E816002058000400F017002030
:1028600078000400BD000400710C0400C4CB0020FB
:1028700001CC0020970C0020E3000400CCCB00200A
:102880009C6900201F010400C1CB00204469002086
:10289000B54B9BF806601D78DFF83CA3B5422CD001
:1028A000082023F009FD48B1B04BC561C0E90536E9
:1028B00004230374002343748374C374AC4900235A
:1028C0004FF4025239F0A2FAAA4B002402201C70E5
:1028D000CAF800401EF0E6FD01287FF448AE21460C
:1028E00002201EF02FFDA44B00200021C3E90001AF
:1028F000A24B1C70A24B1C6039E6DFF8E0929BF8FB
:10290000078099F800509B4BB5EB08054FF0000687
:102910004FF0020048BF05F58075CAF800601E70D0
:102920001EF0C0FD0128DFF858A210D1DAF80030FF
:102930000133CAF8003063B1314602201EF002FDB7
:102940009FED877B8C4B83ED007B8C4B1E70CAF810
:102950000060052D16DD0A2099F8009023F0ACFCEC
:1029600050B1884BC0E90795C0E9053805230374C9
:10297000002343748374C3747D4900234FF42252AF
:1029800039F044FADBF80820BBF80810BBF80A005D
:102990007D4B1D78454501D15D682DB901340A2C68
:1029A00003F10803F5D100259BF80C80B8F10C0F5A
:1029B00074D1C9BA07EE901A9FED747ABBF80D3046
:1029C000734AF8EEE77AC1BA87EE879ADBBA4046D7
:1029D00007EE901AF8EEE77A82ED009AC7EE878A42
:1029E00007EE903AF8EEE77AC2ED018A87EE878A21
:1029F00082ED028A23F060FC0446C8B1654B436156
:102A000019EE100AFEF778FEC4E9060118EE900AE6
:102A1000FEF772FEC4E9080118EE100AFEF76CFE1C
:102A20000823C4E90A01237400236374A374E374C4
:102A30004F49002344F2C002204639F0E7F9564BD3
:102A40001C78002C7FF493AD83F8008037F06BF98D
:102A5000524BB8F10A0FC3E9000140F03F81DBF8A7
:102A60000D104F4B09BA6D468CB019606A464D4B3C
:102A700053614D4B1162C2E9063840F2DC53536298
:102A80004FF400731385494B42F8103F38482346F2
:102A90004FF4535123F0F0FDAD4668E5002D36D0DC
:102AA000FB68591B424BA1FB0330DB0B43EA40435D
:102AB00021B1404C2068884288BF216040F6B73180
:102AC0008B4224D83B4BDFF818911B6814BAFA6884
:102AD00003EBD373A41A04EB6304374B1D6037F088
:102AE00022F9364B364AC3E900011178354B0029EB
:102AF00078D11D60344B3548196001230460C9F852
:102B000000401370324B01221A703AF05AFBB8F1B0
:102B1000000F94D19BF80D409BF80E509BF80F606E
:102B20009BF81080FF2C0BD055B14EB137F00EF949
:102B3000804505D0434632462946204637F005F900
:102B4000244B1A78002A3FF412AD134900221A7060
:102B5000124B0A7000200021C3E9000107E500BF05
:102B60000000000000000000BACB0020310104008A
:102B7000B0E30300C1CB0020F017002002CC0020FE
:102B8000404700205F010400EC4600200000C842DE
:102B9000DC4600208B010400BECB00200017002083
:102BA000E8460020F50104003B0204000600000195
:102BB00040420F00CC060020D4460020F81600202A
:102BC000BBCB0020C8460020C4460020D8460020C9
:102BD000BCCB0020BDCB00203C470020C0CB002058
:102BE000CC4600201E68844B1B68FB60D9F800307F
:102BF0007B60FB68AE1B4FEAE37CA3FB060106FB90
:102C00000C117BA3D3E90023FFF724FA7B687B4AEE
:102C100003441268BA60E31A83EAE372A2EBE37238
:102C2000B2F5FA4F4FF0000A23DD0A20FB6023F0D3
:102C300043FB70B1FB688361BB68714A4261C0E9C4
:102C400007340523037480F811A080F812A080F8DF
:102C500013A000234FF422526A4939F0D7F8674B8A
:102C6000654A1C60684BC9F800401D600023136072
:102C700048E7B6F5004F11D37B686448E11A324645
:102C8000534681FB0001FFF7E5F9FB68C01AFB68BA
:102C900048BF033003EBA000574B18605C4B1A6829
:102CA00001321A60BB68052AA4EB03030FD8BA6887
:102CB000013303EBD37302EB6303504AB6F5F01F05
:102CC000136082BF504BC9F800401D601AE79A1C80
:102CD00048BF5A1DBB6803EBA203EEE708F1FF33C0
:102CE000202B12D8DFE803F0632B2D2F31333B3D2F
:102CF0003F1111434547494B534D4F515557593596
:102D000037395B5D5F6111114100424B6C468AB0FF
:102D10006A464149C2F81C80C2E9051340F2DC53FF
:102D200013624FF4007393843C4B42F8103F3548D4
:102D300000234FF4335123F09FFCA54617E4384B92
:102D4000E4E7384BE2E7384BE0E7384BDEE7384B57
:102D5000DCE7384BDAE7384BD8E7384BD6E7384B67
:102D6000D4E7384BD2E7384BD0E7384BCEE7384B77
:102D7000CCE7384BCAE7384BC8E7384BC6E7384B87
:102D8000C4E7384BC2E7384BC0E7384BBEE7384B97
:102D9000BCE7384BBAE7384BB8E7384BB6E7384BA7
:102DA000B4E7384BB2E7384BB0E7384BAEE7384BB7
:102DB000ACE73CF8111089B28D4202F101027FF4B8
:102DC00005AD01360230F8E408209BF8004023F0FE
:102DD00073FA40B12F4BC0E9053403230374002379
:102DE00043748374C37400234FF4C45273E400BF6C
:102DF00000CA9A3B00000000D0460020D8460020C0
:102E0000B4010400B0E30300C846002000CA9A3BA6
:102E1000C44600201B000400470204000500000116
:102E20005A0404007E040400A5040400CB0404003A
:102E3000EA0404000E0504003005040051050400F6
:102E40004C060400EE0404002B00040023000400E0
:102E500035080400580804007D080400A108040097
:102E6000C5080400E90804000E090400350904003F
:102E70005D0904007C090400A3090400CA090400D8
:102E80007305040095050400B8050400DA05040084
:102E9000370404008102040070B5234E33781BB35D
:102EA00036F041FF214AD2E9004543F69923041B3D
:102EB00061EB05059C4275F1000318DB082023F047
:102EC000FBF948B11A4BC561C0E90534042303740A
:102ED000002343748374C374002316494FF40252D1
:102EE00038F094FF002333700020002170BD3AF0C9
:102EF00068F9114B1D68114B451B04461868C6172D
:102F0000A5FB000106A3D3E9002305FB0611FFF78B
:102F1000A1F80B4B1B681C442044E6E7AFF300808C
:102F200000CA9A3B00000000BCCB0020F81600202D
:102F3000660A0400B0E30300D4460020D046002017
:102F4000D846002000000000F0B514461A4AA0FB45
:102F5000020302FB0131C00B85B040EA414014A3DB
:102F6000D3E90023C90BFFF7C5F8054619461046FB
:102F70000023124AFFF7BEF8064619461046002302
:102F80000D4AFFF7B7F807461946104600234FF4DD
:102F90007A72FFF7AFF80097CDE90102334608488F
:102FA0002A46214638F011FA05B0F0BDAFF3008093
:102FB00000A493D60000000040420F000087930356
:102FC0003A180400000000002DE9F04F2DED028BAF
:102FD000CDB01EF0A7FE38B14FF080435722C3F8A2
:102FE0001C2500201EF05EF925F0D6FC23F07AF9AE
:102FF0000446002840F0F780914839F0DDFF78B1B1
:103000008F4D4794AE683224B36C002B40F0EF80B4
:10301000642036F09DFE013CF6D1642036F098FE27
:103020008848894D38F0D1F912262F23CDE9013691
:103030000323864800930522142340F2EA7138F0F6
:10304000C4F9834B834A8449844838F0BEF90AF0B6
:103050003BFE834B18681B798DF84C30814B1290E6
:103060009A88ADF8BC20804A186851689B792E90E8
:1030700010688DF8BE303AAB03C3127A1A707B4BDE
:103080009A88ADF8C4207A4A186851689B793090C4
:1030900010688DF8C63036AB03C3764B764A186895
:1030A00051681B79149010688DF8543040AB03C3FD
:1030B00012891A80714B724A18681B798DF85C303E
:1030C000704B0793704B169018689B88ADF89C3036
:1030D0006E4B2690186851689B8828901068ADF850
:1030E000A4303DAB03C3127A1A70694B18689A88F2
:1030F0009B798DF8CE30674B3290CDE90853664B03
:10310000ADF8CC20186818901B798DF86430634BAB
:10311000634A186851689B882A901068ADF8AC30F3
:1031200038AB03C35F4B43AA03F10806186859681C
:10313000144603C40833B3422246F7D118681B79FA
:103140002371594B20600A93584B594A18681B79D0
:103150008DF86C30574B1A9018681B798DF87430C5
:10316000554B0B93554B564E1C9010681E9018688B
:10317000209030682C90B088ADF8B40051480C9085
:10318000A0F54020A0F61970147919798DF87C40CB
:10319000CDE90D0510688DF8841022908DF88C40D3
:1031A0001868494B0F93494B24909A8818689B796B
:1031B0008DF8D630464B8DF894103490ADF8D4206D
:1031C000109325F0D1FB06460246424800251178AF
:1031D000C9B9052216A930463AF048F800287BD133
:1031E0000AF072FDEDE7012032F0E8FEFEE647AAA4
:1031F00004212846984700287FF40AAF479B002BFC
:103200003FF406AF09E7445C537804F00304012C53
:1032100004D12031117011464A1CD8E72029FAD177
:10322000002DF8D11570C15C01F00301012908BF20
:103230002033DBB2511C5370002B18BF0D46EBE757
:103240001CDD03005E1A04006D616700781A04003B
:10325000D61A0400A60A0400E01A0400181B040091
:103260000CA904006D2D0400742D04007D2D0400B4
:10327000BBA70400D3920400FB290400842D0400A2
:10328000892D04006C656400922D0400982D0400C3
:103290009E2D040073657400A52D0400FE22040019
:1032A000AF2D0400AA2D040064667500A7920400E7
:1032B000B72D0400F40C04006E767300BC2D0400DE
:1032C000F60304007A726F0062617400EE940400E9
:1032D000616C6C0058D50400052212A9304639F003
:1032E000C5FF8346002840F0FC82CC48DFF8B4A339
:1032F00038F06BF812252F23CDE901350323C84898
:1033000000930522142340F2EA7138F05EF8C54BB1
:10331000C54AC649C64838F058F8C64838F055F886
:10332000C54838F052F8C54838F04FF8C44838F06E
:103330004CF8DAF80030B3F8823303F07F037F2BC8
:1033400000F09A821AF082FA0146BE4838F03DF841
:10335000DAF8003093F88633FF2B08D013F0800F93
:10336000B94BBA49BA4818BF194638F02EF8DAF8FE
:103370000030B84893F88623B3F8821338F025F864
:10338000DAF80030B3F8843303F07F037F2B00F0CA
:1033900075821AF071FA04461BF0EAFAAE4BAF4A96
:1033A0002146002818BF1A46AD4838F00EF8DAF862
:1033B000003093F88723FF2A0FD0B3F884130C064C
:1033C00040F15E8293F98623A649A74B31EA220198
:1033D00028BF19469E4837F0F8FFDAF800309D48BC
:1033E00093F88723B3F88413DFF8988237F0EDFF62
:1033F0009E4837F0EAFF0025DAF8004004EB850428
:103400000135D4F84401FEF777F90646D4F868018F
:103410000F46FEF771F9CDE90401D4F85C01FEF71F
:103420006BF9CDE90201D4F85001FEF765F9324697
:10343000CDE900013B46404637F0C7FF032DDBD105
:103440008B4837F0C2FFDAF80060D6F84401FEF787
:1034500053F90446D6F84C010D46FEF74DF9CDE977
:103460000201D6F84801FEF747F922462B46CDE97E
:103470000001804837F0A9FFDAF80060D6F8500163
:10348000FEF73AF90446D6F870010D46FEF734F916
:10349000CDE90201D6F86001FEF72EF922462B464F
:1034A000CDE90001744837F090FFDAF80060D6F8F3
:1034B000FC00FEF721F90446D6F804010D46FEF79C
:1034C0001BF9CDE90201D6F80001FEF715F92246F5
:1034D0002B46CDE90001694837F077FF47A80DF08A
:1034E00033FE4798FEF708F9044648980D46FEF764
:1034F00003F9064649980F46FEF7FEF880468946CE
:103500001BF0D0FC10EE100AFEF7F6F8CDE90067CC
:10351000CDE9040122465A485A4F2B46CDE902898B
:1035200037F053FF584837F050FFDAF8006006EBE9
:103530008B060BF1010BD6F81401FEF7DDF80446FB
:10354000D6F838010D46FEF7D7F8CDE90401D6F8D4
:103550002C01FEF7D1F8CDE90201D6F82001FEF7E3
:10356000CBF82246CDE900012B46384637F02DFF37
:10357000BBF1030FD9D1DAF80030D3ED457AF5EE7F
:10358000407AF1EE10FA4FF0000240F08081D3ED66
:10359000467AF5EE407AF1EE10FA40F07881D3EDFC
:1035A000477AF5EE407AF1EE10FA40F0708111A8FA
:1035B00011920CF0E1FD04460CF07CFE334D10EE50
:1035C000100AFEF799F8064611980F46FEF794F890
:1035D00032463B46CDE90201009429462C4837F09B
:1035E000F4FE1AF059F901462A4837F0EEFE144865
:1035F00037F0EBFEDAF80030274893F8661093F8BE
:103600006560264B002E08BF184637F0DEFE4FF0EF
:1036100080522348D2F8A83046E000BF3C1B04008B
:10362000781A0400D61A0400A60A0400E01A04005E
:10363000181B04004E1B0400611B0400701B0400D7
:10364000404F04008C1B0400D11904007684040050
:10365000951B0400A41B040057C5040049A30400E3
:10366000B91B0400E8190400D5190400D11B04009B
:10367000FE1B0400131C0400311C04004E1C04003B
:103680006E1C0400E91B0400A91C0400519C0400EA
:10369000BF1C0400FF1C0400011A0400111A0400DE
:1036A0000C1D0400D0060020D2F8A4209BB237F0F5
:1036B0008CFEDAF80020A448D2F86930B2F867200E
:1036C00042EA03421B0C37F080FEDAF80070002F4C
:1036D00000F0E88097ED5D7ADFED9C8AB7EE008A16
:1036E000C8EE077A78EE677A67EEA87A17EE900A46
:1036F000FEF702F897ED5F7AC8EE077A04460D46AA
:1037000078EE677A67EEA87A17EE900AFDF7F4FF75
:10371000CDE9020197ED5E7AC8EE077A38EE678A46
:1037200068EE287A17EE900AFDF7E6FF2246CDE90B
:1037300000012B468648052137F047FEDAF80020C5
:103740008149D2F869308348B2F86720002E18BF4B
:10375000084642EA03421B0C37F037FEDAF8003025
:1037600093F88813642992BF7B487C48542137F032
:103770002CFE7B4837F029FE1BF0C8FE83461BF069
:10378000D3FE1BF033FE82461BF0D4FE07460E46E6
:103790001BF0D0FF054689461BF0D2FEBBF1000F9F
:1037A0000446884640F38E8039F00FFD6D4AC01BF9
:1037B00061EB0603A0FB020102FB0311C00B40EA10
:1037C00041405FA3D3E90023C90BFEF793FC1946E0
:1037D000064600231046644AFEF78CFC0746504616
:1037E00016B9FBB2002B61D0FDF774FF5F4B0022CE
:1037F000FEF704F9CDE9006702460B465C4837F056
:10380000E4FD55EA090364D0564BA5FB030103FB15
:103810000911C00B40EA414049A3D3E90023C90B79
:10382000FEF768FC05461946104600234E4AFEF78F
:1038300061FC294602464F4837F0C7FD54EA0803A9
:103840004BD0484BA4FB030103FB0811C00B40EA1B
:1038500041403BA3D3E90023C90BFEF74BFC0446D0
:10386000194610460023404AFEF744FC2146024612
:10387000414837F0AAFDA4E4404966E53F4C8BE59A
:103880003F4B404912F0800F18BF1946A2E511A81E
:1038900011920CF071FC04460CF00CFD3A4D10EE48
:1038A000100A8EE6394837F090FD47E7FDF712FF22
:1038B0002E4B0022FEF7A2F802460B46344837F0A2
:1038C00084FD9EE73E430CBF3248334837F07DFD10
:1038D00097E7324837F079FDB0E7314837F075FDAA
:1038E0006FE407222EA9304639F0C0FCB0B939F098
:1038F0006CFC2C4A0D460446FFF726FB2A4B1B683E
:10390000D3E90401D3E90223801A61EB0301001912
:10391000264A41EB0501FFF717FB52E409223AA9B9
:10392000304639F0A3FC10B90AF0D4FB49E4072271
:1039300030A9304639F09AFCD0BB1DF0B3FC40E40E
:1039400000A493D600000000241A04000000E14403
:10395000251D04003F1A04009A1D0400B31D040035
:10396000404F040040420F0000879303000059407D
:10397000CD1D0400281E0400681E0400C3190400A5
:10398000D119040076840400FA190400671D0400AC
:10399000F31D0400041E0400F61E0400461E04006D
:1039A0008A1E0400B01E0400D0060020B71E0400CA
:1039B000082236A9304639F059FC002840F0118120
:1039C0001BF09EFD0146C44837F0FFFC1BF09EFD36
:1039D00080461BF0A9FD81461BF008FD06461BF042
:1039E000A9FDB8F1000F04460D4640F3DA803046D9
:1039F000FDF770FEB94B0022FEF700F80646484678
:103A00000F46CDF80880FDF765FEB44B0022FDF7A8
:103A1000F5FF3246CDE900013B46B14837F0D5FC11
:103A200054EA050300F0C18039F0CFFB001BAD4A1A
:103A300061EB0501FFF788FA1BF082FD814688469D
:103A40001BF0D4FD07460E461BF022FE05460C4631
:103A50001BF070FE50EA010300F0AB80A24AFFF7B2
:103A600073FA59EA080300F0A880A04A4846414684
:103A7000FFF76AFA57EA060300F0A3809C4A38462B
:103A80003146FFF761FA55EA040300F09E80994A37
:103A900028462146FFF758FA36F037FF054636F03C
:103AA00046FF044628461BF0A1FC824620461BF038
:103AB0009DFC804636F04DFF45EA04030746180496
:103AC0000E4600F1868057EA010300F082804046EE
:103AD000FDF700FE814B0022FDF790FF804628464F
:103AE0008946FDF7F7FD7D4B0022FDF787FFCDE905
:103AF00004012046FDF7EEFD784B0022FDF77EFF26
:103B0000CDE902015046FDF7E5FD744B0022FDF7BB
:103B100075FF4246CDE900014B46774837F055FC2A
:103B2000764A38463146FFF70FFA1BF06DFE06461F
:103B30001BF090FE04461BF0A5FE44EA00031904A6
:103B400007464AD42046FDF7C5FD644B0022FDF729
:103B500055FF06EB86060446F0B20D46FDF7AAFDBA
:103B6000CDE902013846FDF7B5FD5C4B0022FDF7BB
:103B700045FF2246CDE900012B46614837F025FC80
:103B80001BF01EFEFDF796FD5E4B0022FDF736FF93
:103B900002460B465C4837F018FC1BF0EFFEFFF7BF
:103BA00010BB5A4837F011FC3AE7594837F00DFC82
:103BB00042E7584837F009FC53E7574837F005FC0F
:103BC00058E7564837F001FC5DE7554837F0FDFBF4
:103BD00062E7544837F0F9FBA7E7534837F0F5FBA5
:103BE000CEE7052214A9304639F040FB20B9012068
:103BF0001AF012FFFFF7E5BA0A2240A9304639F061
:103C000035FB18B90CF030FAFFF7DBBA042207A92C
:103C1000304639F02BFB002840F03A8125B9434863
:103C200037F0D3FBFFF7CDBA41492846FEF709FB31
:103C3000014618B91CF0EAF9FFF7C3BA3D49284616
:103C4000FEF7FFFA014620B902201CF0DFF9FFF76A
:103C5000B8BA39492846FEF7F4FA014620B90320DC
:103C60001CF0D4F9FFF7ADBA34492846FEF7E9FA5B
:103C7000014620B904201CF0C9F9FFF7A2BA304967
:103C80002846FEF7DEFA014620B905201CF0BEF9F1
:103C9000FFF797BA2B492846FEF7D3FA014620B919
:103CA00006201CF0B3F9FFF78CBA27492846FEF727
:103CB000C8FA014620B907201CF0A8F9FFF781BA1D
:103CC00022492846FEF7BDFA0146002840D10820C7
:103CD0001CF09CF9FFF775BAC31E040000005940A0
:103CE000CF1E0400051F0400271F04003A1F040014
:103CF000501F0400801F0400B01F0400F01F0400C8
:103D00001F2004000000344064200400F51E04005D
:103D1000121F0400461E04008A1E0400601F0400D7
:103D2000901F0400032004005020040078200400A9
:103D3000C020040054810400A8200400AE20040028
:103D400083AA0400B3200400BB200400C4200400A4
:103D5000B2492846FEF775FA28B9002109201CF05F
:103D600055F9FFF72EBAAE492846FEF76AFA014622
:103D700020B90A201CF04AF9FFF723BAA9492846BE
:103D8000FEF75FFA014620B90B201CF03FF9FFF760
:103D900018BAA5492846FEF754FA014620B90C2066
:103DA0001CF034F9FFF70DBAA0492846FEF749FA8E
:103DB000014620B90D201CF029F9FFF702BA9C49F1
:103DC0002846FEF73EFA014620B90E201CF01EF9E7
:103DD000FFF7F7B997492846FEF733FA014620B9AD
:103DE0000F201CF013F9FFF7ECB993492846FEF7B2
:103DF00028FA014620B910201CF008F9FFF7E1B9B4
:103E00008E492846FEF71DFA014620B911201CF004
:103E1000FDF8FFF7D6B98A492846FEF712FA01469F
:103E200020B912201CF0F2F8FFF7CBB985492846DB
:103E3000FEF707FA28B9002113201CF0E7F8FFF776
:103E4000C0B981492846FEF7FCF9014620B9142083
:103E50001CF0DCF8FFF7B5B97C492846FEF7F1F90C
:103E6000014620B915201CF0D1F8FFF7AAB978490E
:103E70002846FEF7E6F9014620B916201CF0C6F8E0
:103E8000FFF79FB97348294637F09FFAFFF799B9B2
:103E900005221EA9304639F0E9F9044600283DD133
:103EA00025B96D4837F091FAFFF78BB96B49284671
:103EB000FEF7C7F918B90AF0C7F8FFF782B9284624
:103EC0006749674E34F08EFA47AD0746E7B1032CD9
:103ED00009D19DED491ADDED480A9DED470A0AF02A
:103EE00037F8FFF76EB911A9384634F021FA119B63
:103EF000A5EC010ABB4209D0187838B9314634F034
:103F000071FA01340746E1E7032CE2D0554837F057
:103F10005CFA554837F059FAFFF753B9052220A942
:103F2000304639F0A3F9002840F08F8225B94F4878
:103F300037F04BFAFFF745B94D49284634F052FAAD
:103F400004460028F3D04B49FEF77BF938B901202D
:103F50000FF024F8484837F038FAFFF732B94749EC
:103F60002046FEF76EF930B90FF018F8444837F0E4
:103F70002CFAFFF726B943492046FEF762F9B8B993
:103F80000FF0AAF80FF052F83F4D404C00280CBF3C
:103F9000294621463E4837F018FA0CF04BFE00281F
:103FA0000CBF294621463B4837F00FFAFFF709B905
:103FB00039492046FEF745F918B90CF09FFCFFF788
:103FC00000B936492046FEF73CF9002876D1284949
:103FD00034F008FA044620B9314837F0F6F9FFF713
:103FE000F0B82449FEF72DF950B901200CF0F4FD8A
:103FF0002C4837F0EAF92C4837F0E7F9FFF7E1B839
:104000001E492046FEF71DF9002851D10CF0E4FDB1
:10401000264837F0DAF9FFF7D4B800BFBA820400B7
:10402000A7920400CD200400D5200400DC20040069
:10403000E5200400EE200400F5200400FC2004002C
:10404000032104000A2104001021040018210400A7
:10405000232104002B2104005F210400F603040047
:10406000A2210400A4210400E5210400032204008D
:10407000DAB50400548104007E220400C02004004C
:104080009A220400A67F040049A3040057C5040037
:10409000D0220400E8220400FE22040004230400CD
:1040A000092304003B23040085230400CA230400E1
:1040B0008B48214637F089F9FFF783B889492046B4
:1040C000FEF7BFF8054600285AD1874F3B68B3F882
:1040D0002C1821B9854837F078F9FFF772B8844871
:1040E000DFF868B237F071F9824837F06EF982482C
:1040F00037F06BF97F4837F068F900244FF00A0A6F
:104100003E6806EB0516D6EDE47AF5EE407AF1EE60
:1041100010FA1FD017EE900AFDF7EEFA8046D6F897
:104120009C038946FDF7E8FACDE90401D6F8980327
:10413000FDF7E2FACDE90201D6F89403FDF7DCFAC7
:104140004246CDE900014B462946584637F03DF935
:104150000134A4B2B4FBFAF30AFB13439BB21BB9BC
:1041600014B1142035F0F4FD0135462DC8D1614855
:1041700037F02BF96148214637F027F9FFF721B8CE
:104180005F492046FEF75DF8054650BB5D4934F0B7
:1041900029F9044620B95C4837F017F9FFF711B840
:1041A0000A2247A9479534F0CFF9479B83B1A34230
:1041B0000ED05649479B1A78002A00F0A9848A5CE1
:1041C00012070BD45248214637F0FFF8FEF7F9BF2B
:1041D0005048214637F0F9F8FEF7F3BF0133479313
:1041E000E8E74D492046FEF72CF8054650BB454907
:1041F00034F0F8F8044678B91AF054FEB4EE400AE8
:10420000F1EE10FA04D7454837F0DFF8FEF7D9BFD2
:104210000FF0C0F8FEF7D5BF47A9479534F088F8EE
:10422000479BA34201D01B7843B13D48214637F05C
:10423000CCF83C4837F0C9F8FEF7C3BF0FF0AAF836
:10424000FEF7BFBF38492046FDF7FBFF00287FD1AE
:104250001AF028FEB4EE400AF1EE10FAB0EE408AF1
:1042600004D7324837F0B1F8FEF7ABBF47A911A821
:104270000CF06CFC064618EE100AFDF73DFA0246FB
:104280000B462B4837F0A1F8DDED117AF4EE677A92
:10429000F1EE10FA1FD617EE900AFDF72DFA04463C
:1042A00047980D46FDF728FA2246CDE900012B4636
:1042B000204837F08AF8204B2048002237F085F854
:1042C00026B11F4837F081F8FEF77BBF1D4837F055
:1042D0007CF8FEF776BF1C4837F077F8FEF771BF21
:1042E000EC23040023240400D0060020282404002A
:1042F0006024040096240400CA2404002A25040033
:1043000051250400DAB504005825040058D50400EE
:10431000402D040088250400BD250400C2250400AA
:1043200018260400502604009C3D04006926040061
:1043300092260400AE2604000000E03FE2260400BE
:10434000072704004E27040089270400FF240400E7
:10435000BB492046FDF775FF002870D1B94934F0FC
:1043600041F8044600284CD1B74CB848B84EB94D76
:1043700037F02BF82368B84893F8301800290CBFA1
:104380003146294637F021F82368B44893F83118AC
:1043900000290CBF3146294637F017F82368B0488A
:1043A00093F8321837F011F82368AE4893F84018A4
:1043B00000290CBF3146294637F007F8266896F8E1
:1043C0004038CBB106F634031868FDF795F906F6C8
:1043D0003C03044618680D46FDF78EF9CDE902014D
:1043E00006F638063068FDF787F92246CDE9000168
:1043F0002B469D4836F0E9FF9C4836F0E6FFFEF775
:10440000E0BE9B49FDF71DFF38B901200EF09CFD71
:10441000984836F0DAFFFEF7D4BE97492046FDF7FC
:1044200010FF30B90EF090FD944836F0CEFFFEF745
:10443000C8BE9348214636F0C8FFFEF7C2BE914879
:10444000214636F0C2FFFEF7BCBE072232A9304635
:1044500038F00CFF18B90BF011FEFEF7B2BE0422C3
:1044600008A9304638F002FF0446002840F0BE801C
:10447000002D75D11AF07CFA834A8449DFF8C8818F
:10448000DFF85092002808BF1146814836F09DFFA2
:1044900019F0F2F901467F4836F097FF7E4836F072
:1044A00094FFD8F8005005EB84050134D5F81401C9
:1044B000FDF722F90646D5F838010F46FDF71CF93D
:1044C000CDE90401D5F82C01FDF716F9CDE902017B
:1044D000D5F82001FDF710F93246CDE900013B4641
:1044E000484636F072FF032CDBD1002347A84793E0
:1044F0000BF042FED8F80030D3ED457AF5EE407A65
:10450000F1EE10FA044625D1D3ED467AF5EE407A65
:10451000F1EE10FA1ED1D3ED477AF5EE407AF1EEC6
:1045200010FA17D10BF0C6FE5C4D10EE100AFDF725
:10453000E3F802460B465A48294636F046FF4798AC
:10454000FDF7DAF802460B465648214636F03DFFA5
:10455000FEF737BE0BF0AEFE534D10EE100AE6E745
:104560003849284633F03EFF41490446FDF769FECD
:1045700038B94E4836F029FF01201AF097F9FEF7B6
:1045800020BE3D492046FDF75CFE054638B9484847
:1045900036F01BFF28461AF089F9FEF712BE45498E
:1045A0002046FDF74EFE38B901210BF0B1FC424820
:1045B00036F00BFFFEF705BE40492046FDF741FEF1
:1045C00020B13F492046FDF73CFE50B901210020B3
:1045D0000BF09EFC0BF05CFD3A4836F0F6FEFEF761
:1045E000F0BD394836F0F1FEFEF7EBBD09A9042213
:1045F000304638F03BFE014600286DD11022284697
:1046000034F046F8314ACDE9000106460C4647A889
:10461000112136F0E7FE56EA04030BD01122294699
:1046200047A838F023FE28B93046214608F0D4FACE
:10463000FEF7C7BD264836F0C8FEFEF7C2BD00BF74
:10464000EC070400DAB50400D0060020C8270400F7
:104650005B1A0400571A0400E2270400F127040043
:104660000228040012280400282804004C28040012
:104670005481040068280400C0200400A02804001D
:10468000BC280400F328040049A3040057C5040013
:104690006A2904007C290400A91C0400519C040020
:1046A0008A290400DC1C0400FA190400AA29040069
:1046B000C1290400FE220400D9290400BD2D0400F4
:1046C000FB290400052A0400272A0400462A0400C6
:1046D0004E2A0400E91B0400052218A9304638F0D0
:1046E000C5FD18B908F06AFAFEF76BBD06222AA9C3
:1046F000304638F0BBFD18B908F0CAFAFEF761BDC4
:10470000082238A9304638F0B1FD002841D13DB922
:10471000B34836F05AFEB34836F057FEFEF751BDA7
:104720000A2247A9284633F00FFF479B1B7804460F
:1047300013B9431E632B04D9AB4836F046FEFEF78F
:1047400040BDAA4D0146AA4836F03FFE2B6883F8CB
:10475000884309F08DFE2A6802F562721146012332
:104760001F201DF045F82B68A24893F8881336F0F7
:104770002CFE07F0C3FF0A2035F0EAFA012007F00B
:10478000EDFE2B689C4893F8881336F01EFEFEF76A
:1047900018BD0D2243A9304638F068FD08BB934C84
:1047A000964836F012FE2368FF2283F8882309F02A
:1047B0005FFE226802F56272012311461F201DF080
:1047C00017F88F4836F001FE07F098FF0A2035F001
:1047D000BFFA012007F0C2FE8A4836F0F6FDFEF768
:1047E000F0BC04220AA9304638F040FD38BBCDB1F8
:1047F0008549284633F0F6FD044698B18349FDF714
:1048000020FDB0B9824836F0E0FD4FF08043A82289
:10481000C3F81C25642035F09BFA00201CF042FDF3
:10482000FEF7CFBC7B4836F0D0FD4FF080435722D7
:10483000EEE77948214636F0C8FDFEF7C2BC0522F6
:104840001AA9304638F012FD18B909F037FCFEF706
:10485000B8BC04220BA9304638F008FD18B91DF089
:10486000C9F9FEF7AEBC05221CA9304638F0FEFCA3
:1048700020BB38F0AAFC4FF4C3620023FDF7EAFB2B
:10488000104619464E220023FDF7E4FB0446194664
:10489000104600230D22FDF7DDFB604B6049D2B2CC
:1048A000C0B253F822305F4AE4B252F8202051F8E7
:1048B00024105D4836F089FDFEF783BC062226A948
:1048C000304638F0D3FCA8B97DB10A2247A9284662
:1048D00033F03AFE479BAB4204D01B7813B9431E1A
:1048E0003B2B03D9514836F070FD01201AF012FB22
:1048F000FEF767BC062228A9304638F0B7FC20B97D
:104900004B4836F062FDFEF75CBC09223DA93046FB
:1049100038F0ACFCC0B98DB10A2247A9284633F063
:1049200013FE479BAB4206D01B7823B9421E44F6C8
:104930001F639A4204D93F4836F047FD4FF47A701E
:104940000FF04AFAFEF73DBC06222CA9304638F09B
:104950008DFC00287FD1002D78D004220CA9284698
:1049600038F084FC18B935F003FAFEF72ABC0422AB
:104970000DA9284638F07AFC18B935F003FAFEF78D
:1049800020BC04220EA9284638F070FC20B9012171
:104990000BF0BEFAFEF715BC052222A9284638F016
:1049A00065FC00283FF487AA052224A9284638F090
:1049B0005DFC00283FF401AB04220FA9284638F023
:1049C00055FC18B91AF074FFFEF7FBBB072234A997
:1049D000284638F04BFC78BB09F060FBFEF7F1BBD2
:1049E0005F2A0400772A0400A32A0400D0060020CE
:1049F000D92A0400F32A0400102B0400332B0400EE
:104A0000622B0400952B0400DAB50400BD2B0400D2
:104A1000C12B0400DC2B0400F12B04008CE8030004
:104A2000D8E80300C0E803001F2C0400272C040072
:104A30005B2C0400922C0400042210A9284638F0B4
:104A400015FC18B91DF086F8FEF7BBBB324836F0EE
:104A5000BCFCFEF7B6BB31490422304638F006FCF8
:104A600028BBC5B12E492846FDF7EBFB38B901201C
:104A700009F010F92B4836F0A8FCFEF7A2BB2A4932
:104A80002846FDF7DEFB30B909F004F9274836F077
:104A90009CFCFEF796BB35F056F9254A25490028BF
:104AA00008BF1146244836F090FCFEF78ABB234924
:104AB0000422304638F0DAFB28BBC5B11849284635
:104AC000FDF7BFFB38B901201DF0E2FB1C4836F0B2
:104AD0007CFCFEF776BB14492846FDF7B2FB30B9E3
:104AE0001DF0D6FB174836F070FCFEF76ABB1DF0D0
:104AF000C9FB0F4A0F49002808BF1146124836F07B
:104B000064FCFEF75EBB114836F05FFCFEF759BB54
:104B10000BF090FFFEF755BBC02C0400C60D04003F
:104B200054810400D22C0400C0200400E02C0400B6
:104B300049A3040057C50400EF2C0400BD25040060
:104B4000F92C04000C2D0400202D04002F2D04004E
:104B50002DE9F04F2DED028BA74B1A68B2F82C8887
:104B6000DFB0B0EE408A0446B8F1000F16D108203D
:104B700021F0A2FB58B1A14B4361A14B83610323F8
:104B8000037480F8118080F8128080F813809D49AA
:104B900000234FF4C25237F039F971E09A4FD7F839
:104BA000A03043450BD000233B7787F83C3087F893
:104BB0005C3087F87C3087F89C30C7F8A080924939
:104BC0000023F6EE006A087F10B3D1ED007A37EECD
:104BD000C87AB0EEC77AB4EEE67AF1EE10FA17D5DD
:104BE00007EB431378EE677A043304F10C02B3EC5D
:104BF000017AD3ED026A07EEA67AA4EC017AA2420A
:104C0000F5D1002528465FB0BDEC028BBDE8F08FE2
:104C10000133052B01F12001D5D1B8F1010F32D1BB
:104C200011460023D1EDE47AF5EE407AF1EE10FA68
:104C300021D01B0103F56573D618D058716825463D
:104C400003C5B0682860B0EE480A09F02FFC07EBF6
:104C5000401383ED000A450194E807002E1D3E44F1
:104C6000103586E80700002279197A51C1E901223E
:104C700001221A77C5E70133462B01F11001D1D18A
:104C80004FF0FF35BEE7DFED617A9FED614A002509
:104C900002F5657602F2F47E2B46B0EE676AF1EE1D
:104CA000094AB7EE005A4FF0140C56ED016AF5EEC2
:104CB000406AF1EE10FA3DD036EEC87A27EE077A58
:104CC000C7EE245A75EE855A85EE257AB4EEC47A7D
:104CD000F1EE10FA2ED4092D60DC0CFB05F909F574
:104CE000BC71694441ED326A01ED2E7A09F1040983
:104CF0002CA9306889447168A9E803000135B068BF
:104D0000C9F800000A2D15D1DDED307A2CA9002359
:104D1000012591ED097AB4EEE77AF1EE10FA48BF79
:104D20002B4605F1010548BFF0EE477A0A2D01F147
:104D30001401EED110367645B7D1002D40F0DD815B
:104D4000DFED377A02F58C61134693EDE47AB5EE28
:104D5000407AF1EE10FA06D0B4EE677AF1EE10FA6E
:104D600048BFF0EE477A10338B42EED19FED297A9F
:104D7000F4EEC77AF1EE10FA54DD082021F09CFA27
:104D800000283FF404AF1D4B43611D4B8361032397
:104D90000374002343748374C374F8E6B4EEE77AB3
:104DA000F1EE10FAC6DD0CFB03F303F5BC716944A8
:104DB00001ED2E7A41ED326A04332CA930680B44A0
:104DC000716803C3B0681860DDED307A2CA8002349
:104DD000012190ED097AB4EEE77AF1EE10FA48BFBE
:104DE0000B4601F1010148BFF0EE477A0A2900F1B4
:104DF0001400EED19EE700BFD0060020992E0400DB
:104E0000FA51040078E30300784700200000000016
:104E10008FC2F53C00C079440AD7233C00007AC415
:104E200000007A44B4EEE78A0026F1EE10FA5FED56
:104E3000065AB44652D45FED076A104600214FF07F
:104E4000FF3390EDE47AB5EE407AF1EE10FA0FD030
:104E50000DF170094FF0000EB64540F09080B4EEB1
:104E6000E67AF1EE10FAC8BF0B46C8BFF0EE476A0B
:104E70000131462900F11000E3D1591C15D01CA9BD
:104E8000393301EB06101901043102EB031302EB75
:104E9000010E1B68036003465058DEF8041004330B
:104EA00003C3DEF80800186001360CF1010CBCF1F8
:104EB000040F53D0C445BEDB50E0CA46DAED007A99
:104EC00077EEC77A09F11009F0EEE77AF4EEE57AA9
:104ED000F1EE10FA1ED40EF1010E10E05FED306A13
:104EE000104600214FF0FF3390EDE47AB5EE407AA2
:104EF000F1EE10FA0ED00DF170094FF0000EB6452C
:104F0000DBD1B4EEE67AF1EE10FA48BF0B4648BFAB
:104F1000F0EE476A0131462900F11000E4D1581C37
:104F200015D01CA9393301EB06101901043102EB2D
:104F3000031302EB010E1B68036003465058DEF8B2
:104F40000410043303C3DEF80800186001360CF1C6
:104F5000010CBCF1040F01D0C445BFDB0EBB08201F
:104F600021F0AAF900283FF412AE734B4361734B52
:104F700083610323037446748674C67407E6CA46C5
:104F8000DAED007A77EEC77A09F11009F0EEE77AE8
:104F9000F4EEE57AF1EE10FA3FF56AAF0EF1010E8C
:104FA0005AE7012E20D11DAB93E80700B0EE480A66
:104FB00084E8070009F07AFA07EB401383ED008AD2
:104FC0004FEA401C94E807000CF1040EBE440CF1BB
:104FD000100C8EE80700002207EB0C0147F80C20AC
:104FE000C1E901221E770DE61CABDFED557A1946AB
:104FF0000022084690ED007A0132B24277EE877ABD
:1050000001F11001F5D107EE106AF8EEC74A194612
:10501000C7EEA45A0022DFED4A7A084690ED007AE6
:10502000013237EE657AB24247EE077A01F110019C
:10503000F3D10DF158089FED434ADFED413A88ED79
:10504000006AC44604F10C0E224688ED016A88ED20
:10505000026ADFED3B6A1846002190ED017A0131CA
:10506000B14276EE876A00F11000F6D186EEA47A9E
:1050700019460020A4EB020A9FED316AD1ED016AC6
:1050800001EB0A0999ED005A76EEC76A35EE655ACA
:105090000130B04205EE266A01F11001EED1F4EEC6
:1050A000C47AF1EE10FAC8BFC6EE276A03F1040312
:1050B00038EE656AD8BFF0EE636A06EE267AECEC4D
:1050C000016AA2EC017A9645C3D1B0EE480A09F014
:1050D000EDF907EB4016430186ED008A1A1D1744CF
:1050E00094E8070087E80700174A134498E8070088
:1050F00083E807000123337784E5012D2DAE25D108
:1051000096E80700B0EE480A84E8070009F0CEF9F7
:1051100007EB401383ED008A460194E8070006F18F
:10512000040CBC4410368CE807000022B919BA51AF
:10513000C1E901221D7764E5C62E0400FA5104007E
:10514000000000006F12833A8847002000230022ED
:1051500043EC172B8DED047B8DED027BCDE91623FF
:10516000CDE91823CDE91A23CDE91C23CDE91E236F
:10517000CDE92023CDE9002300230893F068FCF754
:10518000BBFA56ED017A77EEC87ACDE90A0117EE3F
:10519000900AFCF7B1FADDE90A2380468946DDE989
:1051A0000001FCF74BF9DDE90A23CDE90001404697
:1051B0004946FCF7F9FA02460B46CDE90601DDE95E
:1051C0000201FCF73BF94246CDE902014B46DDE91D
:1051D0000601FCF7E9FA0B460246DDE90401FCF79B
:1051E0002DF916AB0D93CDE904011CABDDF834B0FD
:1051F0000E939A460F9600270F9B53F8040B0F93BC
:10520000FCF77AFADBE9008902460B46CDE9102368
:10521000DDE90A23FCF7C8FA42464B46FCF70EF9D3
:10522000DAE90089DDE91023EBE80201DDE9060196
:10523000FCF7BAFA42464B46FCF700F90137032F58
:10524000EAE80201D8D1089B0133AB42089306F18A
:10525000140693D1DDE90023DDE90401FCF7A4FA8B
:10526000DDE9022306460F4610461946FCF79CFA74
:1052700002460B4630463946FCF7DEF847A3D3E931
:1052800000238B4621F000418246FCF7FFFC00B36F
:10529000DDE90023DDE91601FCF7B0FBFCF77CFD3E
:1052A000DDE900232060DDE91801FCF7A7FBFCF72E
:1052B00073FDDDE900236060DDE91A01FCF79EFB68
:1052C000FCF76AFDB0EE480AA06009F0EFF8324F33
:1052D000BDE425460DF14C0804F10C090D9BB3EC1F
:1052E000027B0D930E9BF3E8026751EC170B0E93B4
:1052F000DDE904238DED067BFCF756FADDE9022398
:10530000CDE9080130463946FCF74EFA02460B4615
:10531000DDE90801FCF790F852465B46FCF76EFBAE
:10532000FCF73AFDDDE9002345F8040B3946304629
:10533000FCF73AFADDE9022306460F46DDE90601ED
:10534000FCF732FA02460B4630463946FCF774F851
:1053500052465B46FCF752FBFCF71EFD4D4548F8F4
:10536000040BBBD1B0EE480A09F0A0F80A4E06EBD8
:10537000401585ED008A430194E807001F1D37445E
:1053800087E8070013AA07CA1036334483E80700EA
:1053900001232B7735E400BF78470020BBBDD7D968
:1053A000DF7CDB3D000000002DE9F04F2DED068B8A
:1053B000A3B016ACCDE90D1209900C934FF4004246
:1053C0000023204609F064FB68B994E8070019AB94
:1053D0001CAC83E807004FF400420023204609F08C
:1053E000B5FB834638B16FF0010B584623B0BDECD6
:1053F000068BBDE8F08F94E8070022AB03E90700B5
:1054000019F050FDB4EE400AF1EE10FAB0EE408A09
:1054100080F1CA80FBEE047AB4EEE70AF1EE10FAEE
:1054200040F3C280DFEDBE7AB4EEE70AF1EE10FA87
:1054300040F1BA80B0EE409A34F0BDFCCDE91001E5
:1054400019F054FDF0EE409A19F03CFDC9EE807A57
:10545000B6EE007A77EE877A19EE900AFDEEE77ADB
:10546000F0EE408A17EE903A012BB8BF0123089363
:10547000FCF742F9CDE90A010C2020F01DFF05469A
:1054800098B19DED0A7BA74B436180ED067B18EE3A
:10549000900AFCF731F9089BAB62C5E908010723C4
:1054A0002B7400236B74AB74EB74002328469E4965
:1054B0009FED9EAADFED9AAA4FF4635236F0A6FC48
:1054C0009FED957B0C9B8DED047B8DED027B8DED2F
:1054D000007B8DED067B0025DB172E462F46AA4666
:1054E0002C460F9334F067FC109BB0EB0308119B24
:1054F00061EB03090C9B98450F9B79EB030358DB89
:10550000082020F0D9FE50B1894BC0F81C90C0E9AA
:10551000053804230374002343748374C374002385
:105520004FF40352804936F071FC082020F0C4FE8D
:1055300040B1804BC0E90537032303740023437453
:105540008374C374784900234FF4C65236F05EFC6E
:10555000DDED327A9FED787AF8EEE76AC6EE877A6B
:1055600027EEA90AFDEEC07A17EE904AA74280F214
:1055700054810C2020F0A0FE78B1704BC4619DEDE9
:105580000A7BC0E90537329B836280ED087B0723E5
:105590000374002343748374C374634900234FF47A
:1055A000625236F033FC1EE79FED659A9FED658AE7
:1055B00042E7FDEEE97A013517EE903A9D4203DBB2
:1055C00007201DF001F90025329B329ADB17904528
:1055D00079EB030313DB94B10A2020F06DFE50B188
:1055E000594BC0E90797C0E9053805230374002328
:1055F00043748374C37400234FF4235292E7089BCF
:10560000B3424FDC40F6CD42002313A809F040FA24
:10561000064600287FF4E7AE13AB16AA19A9804608
:10562000B3EC017AF2EC017AB4EEE77AD1ED007ACC
:10563000F1EE10FAB4EE677A48BF02ED017AF1EEAE
:1056400010FAC8BFF0EE477A12ED017AE1EC017A68
:1056500077EEC78AF4EECA8AF1EE10FA1DDD0A2051
:1056600020F02AFE044670B1384BC4E9053818EE24
:10567000900AFCF741F80623C4E9080123740023CB
:105680006374A374E374284900234FF44352204603
:1056900036F0BCFB4FF0FF3BA7E608F10108B8F17C
:1056A000030FBDD140F6CD42002313A809F04EFAF6
:1056B0000136804600287FF496AE13AB1CAA1FA9C2
:1056C000F7EE086AB3EC017AF2EC017AB4EEE77A0D
:1056D000D1ED007AF1EE10FAB4EE677A48BF02ED30
:1056E000017AF1EE10FAC8BFF0EE477A12ED017AB6
:1056F000E1EC017A77EEC78AF4EEE68AF1EE10FA71
:1057000028DD0A2020F0D8FD04460028BBD0104B2D
:10571000ABE700BFAFF30080000000000000000016
:1057200000007042B430040078E303008FC2753D7E
:1057300004310400B731040000007A44CD31040084
:10574000000080FF0000807F2831040064310400E5
:105750008E31040008F10108B8F1030FB2D113989B
:10576000FBF7CAFF02460B46DDE90001FBF766FEC8
:10577000CDE900011498FBF7BFFF02460B46DDE9B7
:105780000201FBF75BFECDE902011598FBF7B4FFC0
:1057900002460B46DDE90401FBF750FECDE90401AA
:1057A00019F080FBB4EE400AF1EE10FAF0EE408AF8
:1057B00031D6FBEE047AB4EEE70AF1EE10FA2ADDF8
:1057C000B4EEEA0AF1EE10FA25D510EE100AFBF756
:1057D00093FF02460B46DDE90601FBF72FFEF4EED0
:1057E000488AF1EE10FAF4EE498A48BFB0EE688AB2
:1057F000F1EE10FAC8BFB0EE689A39EE487AF7EECB
:10580000007AB4EE677ACDE90601F1EE10FA0AF1FA
:10581000010AA8BF0124013764E6BAF1000F28D0BD
:105820005046FBF757FF02460B46DDE90601FCF741
:10583000E5F8FCF7B1FA0D9B054618600A2020F048
:105840003BFD044670B1324B43612846FBF754FFE1
:105850000523C4E9060123740023C4F820A063745F
:10586000A374E3742B4900234FF42352204636F0EF
:10587000CDFA0E9B79EE488A0C20C3ED008A20F009
:105880001BFD0446C8B1244B436118EE900AFBF798
:1058900033FFC4E9060118EE100AFBF72DFFC4E937
:1058A000080119EE100AFBF727FF0823C4E90A01D3
:1058B000237400236374A374E374002344F2C002CE
:1058C0002046144936F0A2FA3846FBF703FF024699
:1058D0000B4604460D46DDE90001FCF78FF8FCF7A6
:1058E0005BFA099B224618602B46DDE90201FCF7B2
:1058F00085F8FCF751FA099B224658602B46DDE9F2
:105900000401FCF77BF8FCF747FA099B98606CE50B
:105910001C32040078E303004B3204000000000056
:105920002DE9F04F89B01F46DB000593139B0390D0
:10593000DB000493139B079223EAE373DB000D461D
:1059400006934FF00008079B98452BDB09B0BDE894
:10595000F08FDBE90023F4E80201FBF725FF0B469B
:105960000246DDE90001FBF769FD049BCDE900017A
:105970009B4409F101099DED007BB9458AED007B4F
:10598000E7DB0AF1080A0136129B03EBC60B139BF7
:105990009E420BDA9FED0A7B2C468DED007B4FF08B
:1059A0000009E8E7DDF80CA00026EDE7069B039A66
:1059B0001A44059B03921D4408F10108C3E700BF88
:1059C00000000000000000002DE9F74F0F461C46C4
:1059D0001946064638469046651E16F0A1FFA31EDE
:1059E0009FED257B9FED266BE24304FB03316FF0B7
:1059F000070004FB0545183E4FEAC409D20007EB37
:105A0000C101A0EBC400ED000196A7F1100B002B23
:105A100002DC03B0BDE8F08F019E03F1010C2E44BF
:105A20000BEB050EA44512DB58F823609E420AD00A
:105A300004FB063607EBC606B6468A469C46A445D6
:105A400010DB86ED006B013B11440544DFE796ED6A
:105A5000005B0CF1010C8EED005B86ED007BCE440B
:105A60004E44DFE79EED005B0CF1010CAAEC025BFB
:105A7000AEEC027BE3E700BF000000000000000086
:105A8000000000000000F03F2DE9F04F2DED048BE9
:105A90008FB0DDE91C541F4604FB05F300EBC30384
:105AA00003EBC40999ED007B4FEAC40808F108062E
:105AB00003EBC50B03930BEB0603CDE90C01099235
:105AC00051EC170B0293D3E900238DED0A0B8DEDFA
:105AD000047BFBF7B1FC7E4B0022FBF765FE0BEB72
:105AE00008030893039BCDE900019919089BD1E9AC
:105AF0000001D3E90023FBF757FEDDE90023CDE9E0
:105B0000060110461946FBF74FFEDDE90623FBF7B9
:105B100095FCDDE90A2382468B46DDE90401FBF7AB
:105B20008DFCC9E90001029BDDE90A01D3E90023EC
:105B3000FBF784FC029BC3E90001099B03EB080906
:105B400033440993BB19CDE904010A9300220023D1
:105B500050465946B844FCF7B7F8002800F0938047
:105B60004BEC10AB31F09AFA00220023DDE9000182
:105B700057EC106BFCF78AF832463B4600287DD084
:105B8000DDE90001FBF758FC82468B4602460B46D6
:105B9000DDE90401FBF752FC5246C9E900015B460E
:105BA000DDE90601FBF72AFF0B4602990246D1E91F
:105BB0000001FBF741FC099B9FED437BC3E900011A
:105BC0000A9B88ED007B83ED007B089BD3E900896D
:105BD00042464B4640464946FBF7E6FD52460646DE
:105BE0000F465B4650465946FBF7DEFD02460B4624
:105BF00030463946FBF722FC41EC100B31F04EFAEF
:105C000057EC106B404632463B464946FBF7F6FEE2
:105C10003B4641EC190B324650465946FBF7EEFE27
:105C2000B0EE491AF0EE691A41EC180B22460398BF
:105C3000B0EE480AF0EE680A294634F09CFBB0EE5C
:105C4000491AF0EE691AB0EE480AF0EE680A0C98AC
:105C50002246294634F0D4FBB0EE491AF0EE691A18
:105C6000B0EE480AF0EE680A0D98224629460FB0B9
:105C7000BDEC048BBDE8F04F34F010BCDDE9000151
:105C8000FBF7DCFB80E7DDE90023DDE90401FBF73E
:105C9000D5FB099B5246C9E90001C3E900012BF07D
:105CA000004343EC102B31F0F9F954EC103B0A9A05
:105CB00088ED000BBB5104F1004353600FB0BDEC05
:105CC000048BBDE8F08F00BF000000000000000062
:105CD0000000E03F000000002DE9F04FA9B059ECB2
:105CE000118B0693531E19920793339A069B1890B3
:105CF00002FB03F4069B2791DB000A93069B00EB53
:105D0000C40404EBC30BDBE900679D18304653EC79
:105D1000102B39468DED000BFBF78EFB32463B46D0
:105D2000FBF742FD04EBC50A42464B46FBF786FBF8
:105D3000DAE90023FBF762FEDBE90223FBF77EFBD7
:105D4000DAE902238046894630463946FBF776FB7E
:105D5000DDE90023FBF770FB339B1D4404EBC50515
:105D600095ED027B06460F46404629F0004132463B
:105D700027F000438DED007BFBF760FBDDE900259C
:105D800025F00043FBF75AFBCDE9080102460B461C
:105D900040464946FBF732FEDDE908238046894646
:105DA00030463946FBF72AFEDDE90823CDE902013A
:105DB000DDE90001FBF722FE339BDB000D93083386
:105DC0001293CDE90001CDF820A0069B339ADDF8AF
:105DD00018A003EB420304EBC3030C930A9B083B9C
:105DE00004EB030B079B9A4502DD29B0BDE8F08F59
:105DF000069B9A4548DD079B9A4500F0E4800C9B82
:105E000013ED027B089BDBE9006753E9024527F0AD
:105E10000043CDE91B3425F000431A961D93DDE9BC
:105E20001C23DDE91A018DED007BFBF707FB009BCE
:105E30001E93019B23F000431F93DDE91E23FBF714
:105E4000FDFA02460B46CDE9042300220023FBF7AE
:105E500013FF002840F0AC80DDE9042330463946CA
:105E6000FBF7CCFDDDE90423804689462046294620
:105E7000FBF7C4FDDDE90423CDE90201DDE9000102
:105E8000FBF7BCFDCDE9000142464B464046494682
:105E9000FBF78AFCDDE9022304460D46104619464D
:105EA000FBF782FC02460B4620462946FBF7C6FA62
:105EB000DDE9002304460D4610461946FBF774FC45
:105EC00002460B4620462946FBF7B8FA41EC100B78
:105ED00031F0E4F8002200234046494655EC104BCF
:105EE000FBF7D4FE28B105F1004320942193DDE9AE
:105EF0002045069B9A4569DD05F1004323932294D2
:105F0000DDE90423DDE92201FBF74EFCCBE90001CA
:105F100022462B4640464946FBF790FA22462B463E
:105F200080468946FBF76AFD22462B46CDE90401EF
:105F3000DDE90201FBF762FD22462B46CDE90E01A9
:105F4000DDE90001FBF75AFD4246CDE910014B4661
:105F5000DDE90201FBF752FD4246CDE902014B4665
:105F6000DDE90001FBF74AFDCDE900010C9D089C2D
:105F70000BF108065746339B9F4238DB199A189C51
:105F80000AF103039342A8BF134626934FEACA03BC
:105F90000A93083313930A9B103314930025269B0E
:105FA000AB4273DA329C0025339B9D42C0F2C9801C
:105FB000129A089B134408930C9B13440AF1010A9C
:105FC0000C9393440EE79FED8C7B1BE7069B279A6F
:105FD00093429DD0DBF800302493DBF8043003F1CA
